:020000040800F2
:10000000601000204501000813250008551800085D
:10001000112500080F0200080D2C00080000000048
:100020000000000000000000000000007728000829
:10003000110200080000000075280008A52800082B
:100040005F0100085F0100085F0100085F01000810
:100050005F0100085F0100085F0100085F01000800
:100060005F0100085F0100085F0100085F010008F0
:100070005F0100085F0100085F0100085F010008E0
:100080005F0100085F0100085F0100085F010008D0
:100090005F0100085F0100085F0100085F010008C0
:1000A0005F0100085F0100085F0100085F010008B0
:1000B0005F0100085F0100085F0100086518000883
:1000C000591800085F0100085F0100085F0100087F
:1000D0005F010008012C00085F0100085F010008B3
:1000E0005F0100085F0100085F0100085F01000870
:1000F0005F0100085F0100085F0100085F01000860
:100100005F0100085F0100085F0100085F0100084F
:100110005F0100085F0100085F0100085F0100083F
:100120005F0100085F0100085F0100085F0100082F
:10013000DFF80CD000F02EF800480047752E0008BC
:10014000601000200648804706480047FEE7FEE7AB
:10015000FEE7FEE7FEE7FEE7FEE7FEE7FEE7FEE777
:10016000212900083101000830B50B460146002066
:100170002022012409E021FA02F59D4205D303FA69
:1001800002F5491B04FA02F52844151EA2F10102EA
:10019000F1DC30BD064C074D06E0E06840F001039D
:1001A00094E8070098471034AC42F6D3FFF7C4FF39
:1001B000BC3A0008DC3A000870B58C1810F8015BF6
:1001C00015F0070301D110F8013B2A1106D110F8F0
:1001D000012B03E010F8016B01F8016B5B1EF9D1F4
:1001E0002B0705D40023521E0DD401F8013BFAE77A
:1001F00010F8013BCB1A921C03E013F8015B01F8E5
:10020000015B521EF9D5A142D8D3002070BDFEE794
:10021000704700002DE9F05F90F8211000240229BA
:1002200003D004218163012485E001680A6822F07B
:100230000E020A6001680A6822F001020A603F4E5D
:100240003E4FB215DFF8F4C0DFF8F090DFF8ECA015
:10025000DFF8E8B0DFF8E4E00168783F1301150249
:10026000ACF1640CA9F15009AAF13C0AABF1280BDE
:10027000AEF1140E4FF48018B14227D9B9420ED016
:10028000614512D049451DD0514518D0594518D067
:10029000714501D1424615E0294EB14201D10122FA
:1002A00010E0274E1436B14201D110220AE0244E4C
:1002B0002836B14206D0224A3C32914201D11A4638
:1002C00000E02A461E49091F0A602BE0B94213D0FC
:1002D000614517D0494522D051451DD059451DD003
:1002E000714501D142461AE0B14202D14FF080720D
:1002F00015E0134EB14201D1012210E0104E143628
:10030000B14201D110220AE00D4E2836B14206D08A
:100310000B4A3C32914201D11A4600E02A46074975
:1003200080394A60012180F82110002180F82010D6
:10033000416B01B188472046BDE8F09F8000024034
:10034000080402402DE9F84FDFF8B8A100220AF1B5
:10035000040B144601274FF00F090BF1040E00BFE8
:100360000B6807FA04F52B40AB4274D1DFF898C153
:100370004E68A6EB0C0866452BD00DDC032E34D05E
:1003800005DC36B3012E19D0022E2FD11BE0112E21
:1003900016D0122E2AD119E0B8F5881F19D006DC24
:1003A000B8F5803F15D0B8F5801F1FD111E0B8F522
:1003B000001F0ED0B8F5041F18D10AE0CA6815E076
:1003C000CA68121D12E0CA6808320FE0CA680C320F
:1003D0000CE08A682AB1012A4FF0080203D0456177
:1003E00004E0042202E0056100E00022FF2B01D8B6
:1003F000064601E000F104064FEA840501D9A5F1A3
:100400002005D6F800C009FA05F82CEA080C02FA13
:1004100005F54CEA050CC6F800C04D68ED006AD53C
:100420003A4DAE6946F00106AE61AD6924F00306AF
:1004300005F001050095364D06EB050CDCF808507B
:10044000A6074FEA167809FA08F6B543314EB042CE
:1004500002D100261AE04EE02F4EB04201D1012613
:1004600014E02E4EB04201D102260FE02C4EB042D5
:1004700001D103260AE02B4EB04201D1042605E04B
:10048000294EB04201D1052600E0062606FA08F6FC
:100490002E43CCF808604D68DAF80060ED0355464D
:1004A00001D51E4300E09E432E604D68AD0305D587
:1004B000DBF800601E43CBF8006004E0DBF800507E
:1004C0009D43CBF800504D68DEF80060ED027546A4
:1004D00001D51E4300E09E432E604D68AD0205D558
:1004E000084D0C352E681E432E6004E0054E0C3678
:1004F00035689D433560641C102CFFF431AFBDE8B6
:10050000F88F0000000401400000111000100240AC
:100510000000014000080140000C014000100140B3
:100520000014014000180140001C01400AB10161A3
:1005300070470904FBE7000001488068704700002D
:100540001C0800207047704770B504460068456974
:10055000466830490D420DD0F1050BD5216C41F0B4
:10056000010121646FF4807141612068016841F4E8
:100570000041016015F4813F09D0F00507D5206CDA
:1005800040F00200206421686FF40070486115F4A7
:10059000823F28D0F00526D594F83E30628D94F83D
:1005A0003D00216B202B08D13AB921280ED02928F3
:1005B0000CD0282801D1212908D0206C40F004005B
:1005C000206494F83E00102804D008E0204601F092
:1005D00069FD08E02068016841F40071016021684C
:1005E0006FF48060486115F4843F09D0F00507D5A9
:1005F000206C40F00800206421686FF400604861BE
:10060000206C002804D02046BDE8704001F058B9A5
:1006100070BD0000000101002DE9F05F0268044692
:10062000D2F818805569566890F83E007449DFF892
:10063000D0A1DFF8CCB1DFF8CC918F1C0AF17E0A93
:100640000BF13E0B102812D0402810D00D425BD089
:10065000B00559D5936920460021DB435B0700D5DF
:1006600001219269D243120648D5828947E015F0EC
:10067000011F05D0B00503D5204601F01EFC10E097
:100680005F48801D054205D0B00503D5606CC0B23F
:10069000106106E00D4204D0B00502D5204601F0FD
:1006A0007FFB18EA090F14D015EA0A0F08D070056D
:1006B00006D53D4206D12046BDE8F05F01F0ECBA18
:1006C0003D421FD0B0051DD52046BDE8F05F01F0CA
:1006D000A3BA15EA0B0F08D0700506D53D4206D126
:1006E0002046BDE8F05F01F0F5B93D420AD0B00503
:1006F00008D52046BDE8F05F01F088B9028B92B2C0
:10070000FFF721FFBDE8F09F3D480E30054206D0BF
:10071000B00504D52046BDE8F05F01F005BD18EA3C
:10072000090F4FF0280134D015EA0A0F23D07005C5
:1007300021D53D4221D194F83D302046628D002ADA
:10074000E0D0426A541C4462046812782261428DEF
:10075000521E4285428D002AD4D1292BD2D1026863
:10076000536823F4806353602122026380F83D10B4
:1007700000F025FCC6E73D42C4D0B005C2D5608D6F
:100780000028BFD0606A411C61622168007808615E
:1007900031E015EA0B0F22D0700520D53D4220D163
:1007A00094F83D302046648D002CABD01469426A29
:1007B000551C45621470428D521E4285428D002A9E
:1007C000A0D12A2B9ED10268536823F48063536022
:1007D0002222026380F83D1000F0F0FB92E73D42D8
:1007E00090D0B0058ED5608D00288BD01169606ADD
:1007F000421C62620170608D401E608582E70000CD
:100800000200010004001000704790F83E0070479D
:1008100090F83D007047000070B504001BD094F8BC
:100820003D00002520B984F83C50204600F094FBA0
:10083000242084F83D002068016821F00101016056
:1008400000F01EFD404A6168914201D83F4900E036
:100850003F49884201D2012070BD3E492368B0FB68
:10086000F1F159606368934206D94FF49673594386
:100870004FF47A73B1FBF3F12368491C1962616884
:10088000914210D84900401EB0FBF1F2521CC2F355
:100890000B02042A01D2042022E0B0FBF1F0401C3C
:1008A000C0F30B001CE0A368CBB301EBC10202EB69
:1008B0000116421EB2FBF6F2521C42F480421205AF
:1008C00036D06BB301EBC10202EB0111401EB0FB4D
:1008D000F1F0401CC0F30B0040F4804040F40040B5
:1008E0002168C861D4E90701084321680860D4E998
:1008F0000310084321688860D4E905010843216892
:10090000C8602068016841F0010101602564202071
:1009100084F83D00256384F83E50002070BD00E05F
:1009200008E001EB4106421EB2FBF6F2521CC6E79C
:100930000120D5E701EB4101401EB0FBF1F0401C66
:10094000C0F30B00CAE70000A086010080841E00EF
:1009500000093D0040420F002DE9FF4F81B099464C
:100960008B4604464FF00108FFF7E6FD054694F874
:100970003D0020287BD1192301224D4920460095B6
:1009800001F067FC002872D194F83C0001286ED079
:10099000012084F83C0020680168C90703D1016880
:1009A00041F0010101602068016821F400610160EB
:1009B000242084F83D00002626643E48E06220277B
:1009C0002068016841F4807101604B4600224FF0BD
:1009D00001112046009501F03CFC002858D1216807
:1009E0000BF0FE000861FFF7A7FD21680546486986
:1009F0004969C0F3400094F83D20C1F380214FF0D5
:100A0000A00A12E0B9F1000F04D0FFF795FD411BD9
:100A1000494501D984F83DA0216848694969C0F376
:100A2000400094F83D20C1F38021084301D1A02A61
:100A3000E8D184F83D7020684169C943890717D41B
:100A4000016841F4007101602068416980691923DF
:100A5000012217492046009501F0FBFBC0B984F83C
:100A60003D7084F83C60002005B0BDE8F08F1DE0CB
:100A7000016841F40071016021686FF48060486191
:100A8000192301220A492046009501F0E2FB08B132
:100A90000320E9E74146039808F1010881428FD31A
:100AA00084F83D7084F83C600120DDE70220DBE73C
:100AB000020010000000FFFF704770477047000001
:100AC0002DE9F84F1F4690468A460446DDF82890E7
:100AD000FFF732FD064694F83D0020287ED1192309
:100AE000012243492046009601F0B3FB00287DD146
:100AF00094F83C00012879D0012084F83C0020685B
:100B00000168C90703D1016841F001010160206853
:100B1000016821F400610160212084F83D0010206B
:100B200084F83E0000252564C4F824806785314898
:100B3000E062608D208533464A465146204601F0EA
:100B400021F828B1206C84F83C5004284CD00DE0EA
:100B5000206841698069009030E03246494620466D
:100B600001F01DFC28B1206C042838D00320BDE81A
:100B7000F88F606A411C6162216800780861608DAD
:100B8000401E6085208D401E80B2208521684A6904
:100B9000D24352070BD450B1606A421C62620078A3
:100BA0000861608D401E6085208D401E2085324684
:100BB0004946204601F026FB0028D4D1208D00288C
:100BC000CBD154F83D0B016841F400710160202045
:100BD00004F81E09E57765770020C8E706E020687D
:100BE000016841F4007101600120C0E70220BEE706
:100BF000020010000000FFFF704770472DE9FF4F13
:100C000083B09A46DDE9118793460446DDF84090AB
:100C1000FFF792FC054694F83D00202872D1192375
:100C200001227B492046009501F013FB0028F5D1F5
:100C300094F83C00012865D0012084F83C0020682D
:100C40000168C90703D1016841F001010160206812
:100C5000016821F400610160222084F83D004020F9
:100C600084F83E0000262664C4F82490A4F82A8064
:100C70006848E062608D2085CDE9007553465A468C
:100C80002046049901F046F928B1206C84F83C60B4
:100C9000042851D075E0208DDFF87C8168B10128EF
:100CA00014D00228206801681ED041F480610160E0
:100CB00020684169806900909BE0206841698169F2
:100CC0000091016841F40071016092E020680168C0
:100CD00021F48061016072B62068416981690091E8
:100CE000016841F400710AE041F40061016072B6EC
:100CF0002068416981690091016821F48061016087
:100D000062B676E081E0032850D801280BD0022893
:100D10003B464FF0000241462046009512D001F0BC
:100D200098FA70BB13E02A463946204601F006FBCC
:100D300030B1206C202824D0012007B0BDE8F08F0E
:100D400020684BE001F085FAD8B972B61BE0206844
:100D5000016821F48061016072B620680169606AEF
:100D6000421C62620170208D401E2085608D401EF5
:100D700060853B46002241462046009501F069FA15
:100D800008B10320D9E72068016841F400710160CF
:100D900020680169606A421C62620170208D401EF9
:100DA0002085608D401E608562B6C9E72A463946B7
:100DB000204601F0C3FA0028BBD120680169606AAF
:100DC000421C62620170208D401E2085608D401E95
:100DD000608520684169C94349070AD40169606A8E
:100DE000421C62620170208D401E2085608D401E75
:100DF0006085208D002886D1202084F83D0084F86D
:100E00003E6084F83C60002097E7022095E70000F0
:100E1000020010000000FFFF040001002DE9FF4F59
:100E200083B09A46DDE9118793460446DDF8409089
:100E3000FFF782FB064694F83D0020287DD1192358
:100E4000012243492046009601F003FA00287CD194
:100E500094F83C00012878D0012084F83C002068F8
:100E60000168C90703D1016841F0010101602068F0
:100E7000016821F400610160212084F83D004020D8
:100E800084F83E0000252564C4F82490A4F82A8044
:100E90003048E062608D2085CDE9007653465A46A1
:100EA0002046049901F0AEF880B3206C84F83C50E1
:100EB000042848D008E032463946204601F06FFA4F
:100EC00030B1206C042839D0032007B0BDE8F08F82
:100ED000606A411C6162216800780861208D401EB3
:100EE00080B22085618D491E618521684A69D2439F
:100EF00052070BD468B1606A421C626200780861D4
:100F0000208D401E2085608D401E6085208D00282C
:100F1000D1D132463946204601F074F90028D0D1AB
:100F200054F83D0B016841F400710160202004F881
:100F30001E09E57765770020C7E706E020680168AD
:100F400041F4007101600120BFE70220BDE700000D
:100F5000020010000000FFFF00B50068144985B0D2
:100F6000884222D1C02000901220019003200390DB
:100F700069461048FFF7E6F90F48C16941F40011CE
:100F8000C161C069002200F40010049011461F20C6
:100F900000F094F81F2000F085F800221146202070
:100FA00000F08CF8202000F07DF805B000BD0000B6
:100FB00000540040000C0140001002407047704790
:100FC000074810B5016841F010010160032000F0EE
:100FD00095F8002000F006F800F024F8002010BD7D
:100FE0000020024070B50D4D04464FF47A71287808
:100FF000B1FBF0F00A490968B1FBF0F000F024FB06
:1010000048B9102C07D200222146501E00F056F895
:1010100000206C6070BD012070BD00001C08002025
:10102000180800201D4808B5816941F0010181615F
:10103000806900F001000090032000F05FF80022BA
:1010400011466FF00B0000F039F8002211466FF0E6
:101050000A0000F033F8002211466FF0090000F09A
:101060002DF800221146501F00F028F800221146EA
:10107000101F00F023F800221146901E00F01EF809
:1010800000221146501E00F019F80548416821F071
:10109000E06141F00071416008BD000000100240B5
:1010A0000000014000F01F02012191404009800032
:1010B00000F1E020C0F8001170470000F0B40E4BC2
:1010C0001B680C46C3F30223C3F10705042D00D9A6
:1010D0000425191D072901D2002300E0DB1E01268B
:1010E00006FA05F1491E214099409E40761E1640A1
:1010F0003143F0BC01F00EBA0CED00E0064900F0FF
:10110000070208684FF6FF03184040EA0220034A2E
:1011100010430860704700000CED00E00000FA0585
:101120002DE9F047DFF83C8105460E46D8F800006F
:1011300000F00700B0420CD2D8F8001021F00701EF
:101140003143C8F80010D8F8000000F00700B042A2
:1011500063D12878444C800705D56068A96820F0E1
:10116000F000084360602878C00745D0686801280F
:1011700016D02168022816D0890700294DDA616847
:1011800021F0030101436160FFF7D6F96968074662
:1011900041F2883001290FD00229814619D027E079
:1011A00021688903E9E78901E7E700BFFFF7C4F990
:1011B000C11B494501D918E081466068C0F3810030
:1011C0000128F3D118E000BFFFF7B6F9C11B49456C
:1011D0000BD86068C0F381000228F5D10CE000BF95
:1011E000FFF7AAF9C11B494502D90320BDE8F087E2
:1011F000606810F00C0FF3D1D8F80010404601F0F1
:101200000701B1420BD9016821F0070131430160A8
:10121000006800F00700B04201D00120E6E728781E
:10122000400705D56068E96820F4E0600843606025
:101230002878000706D56068296920F4605040EAE4
:10124000C100606000F03CF86168084AC1F3031116
:10125000515CC840064908600020FFF7C3FE00202B
:10126000C4E7000000200240001002408C32000859
:101270001808002001480068704700001808002086
:101280000448054900684968044AC1F30221515CD9
:10129000C840704718080020001002409C32000827
:1012A0000448054900684968044AC1F3C221515CF9
:1012B000C840704718080020001002409C32000807
:1012C00012A185B00FC98DE80F0014A0144A006860
:1012D00004905168134801F00C03042B10D0082B24
:1012E0000ED1C1F38343C9031DF803000AD5516829
:1012F00004AAC1F34041515C0A4A5043B0FBF1F0EB
:1013000005B0704708494843FAE7000002030405A6
:10131000060708090A0B0C0D0E0F10100102000041
:101320000010024000127A0000093D002DE9F84F3C
:1013300004460078B94DC00748D06868C0F3810002
:10134000012807D06868C0F38100022809D16868C5
:10135000C00306D52868800338D5606800286FD0A0
:1013600034E06068B0F5803F0BD010B1B0F5A02F2D
:1013700011D0286820F480302860286820F480206C
:1013800002E0286840F480302860606888B1FFF788
:10139000D3F8064609E0286840F480202860F0E78A
:1013A000FFF7CAF8801B642875D828688003F7D532
:1013B0000CE0FFF7C1F8064605E000BFFFF7BCF8F8
:1013C000801B6428F0D828688003F7D42078944ED6
:1013D00080074FF001094FF000083BD5686810F016
:1013E0000C0F07D06868C0F38100022809D1686833
:1013F000C00306D42868800714D5206901281FD1AE
:1014000010E02069B0B1C6F80090FFF795F80746E4
:1014100005E000BFFFF790F8C01B0228C4D8286879
:101420008007F7D52868616920F0F80040EAC1001C
:1014300028600FE0C6F80080FFF77EF8074606E058
:10144000E9E000BFFFF778F8C01B022823D828681E
:101450008007F7D4207800072CD57248A169D9B14C
:10146000C0F80090FFF768F8074604E0FFF764F85B
:10147000C01B02280FD8686A8007F7D56A484FF466
:10148000FA510068B0FBF1F0009000BF0098411ED7
:101490000091FAD20EE080E0C0F80080FFF74CF82F
:1014A000074604E0FFF748F8C01B022875D8686AB1
:1014B0008007F7D42078400760D5E8690027C0008E
:1014C00008D4E86940F08050E861E869012700F03D
:1014D0008050009055480168C90513D401688346BF
:1014E00041F480710160FFF727F8824606E000BFF3
:1014F000FFF722F8A0EB0A0064284ED8DBF80000C2
:10150000C005F5D5E06801280AD008B1052813D038
:10151000286A20F001002862286A20F0040002E016
:10152000286A40F001002862E06841F2883B98B1E7
:10153000FFF702F882460BE0286A40F004002862B8
:10154000EEE700BFFEF7F8FFA0EB0A0159455AD8B5
:10155000286A8007F6D50CE0FEF7EEFF824605E02C
:10156000FEF7EAFFA0EB0A0159454CD8286A80072C
:10157000F6D41FB1E86920F08050E861E06988B3D3
:101580006968C1F38101022945D00228C6F860804C
:1015900004D0FEF7D1FF044638E034E0FEF7CCFF7C
:1015A000074604E0FEF7C8FFC01B02282BD82868B6
:1015B0008001F7D4206AB0F5803F05D16868A16842
:1015C00020F4003008436860D4E9080108436968E2
:1015D00021F4741108436860C6F86090FEF7ACFF10
:1015E000044606E015E000BFFEF7A6FF001B022838
:1015F00009D828688001F7D50BE000BFFEF79CFFF3
:10160000001B022802D90320BDE8F88F286880015A
:10161000F4D40020F8E70120F6E7000000100240B3
:10162000000042428004424218080020007000403E
:101630004FF0E0210428086903D020F0040008617D
:10164000704740F00400FAE710B5401EB0F1807F0B
:1016500001D3012010BD4FF0E02460610F2160171D
:1016600000F058FF0020A06107202061002010BD7D
:101670007047000070B5026804461068D16853696D
:1016800010F00F0F51D003F0010501F490763543AF
:101690005DD0C20705D0CA0503D5E26B42F0010256
:1016A000E263420705D5DA0703D0E26B42F002029B
:1016B000E263820705D5DA0703D0E26B42F0040249
:1016C000E263020705D5DA0703D0E26B42F00802B5
:1016D000E263E26B002A34D0800604D5880602D586
:1016E000204601F057F920684069E16BC0F3801093
:1016F00001F008010143204624D001F03DF92068A3
:10170000416949061AD5416921F040014161606B88
:10171000A0B11B494163606BFEF77CFD002810D02F
:10172000606B416BBDE87040084783060FD58B06A0
:101730000DD52046BDE8704001F02CB92046FFF7DA
:1017400097FF70BDFFF794FF0020E06370BD0306B4
:1017500006D50B0604D52046BDE8704001F01EBA40
:101760004006F3D54806F1D5D168204621F0400166
:10177000D160202184F8391000F06BF870BD0000B2
:101780006929000870B5040004D094F839000025D8
:1017900010B106E0012070BD84F83850204600F0FA
:1017A00023F8242084F839002068C16821F400510E
:1017B000C160204601F03AF92068016921F49041A6
:1017C00001612068416921F02A0141612068C168F6
:1017D00041F40051C160E563202084F8390084F8A9
:1017E0003A00002070BD000030B50068154985B092
:1017F000884225D11448816941F480418161806922
:10180000124D00F4804004904FF4007000900220CC
:1018100001240190694603942846FEF793FDA00237
:1018200000900020CDE9010469462846FEF78AFDB4
:10183000002211462520FFF741FC2520FFF732FC4E
:1018400005B030BD003801400010024000080140E2
:1018500070477047FEE700000148FEF775BE0000C4
:10186000AC0B00200148FEF7D7BE0000AC0B0020F7
:1018700010B5406A01680A6822F480620A6000219B
:101880004185426B5163826B516390F83D30202259
:10189000602B80F83D2080F83E1007D001680A6870
:1018A00022F001020A60FEF7AFFF10BD016401687B
:1018B0000A6822F001020A60FEF744FE10BD000033
:1018C00070B590F83D1004460025202600682929AF
:1018D0002DD02A292BD094F83D10602904D04168DE
:1018E000090501D484F83D60256384F83E50016801
:1018F00021F40061016020684168090537D541681D
:1019000021F400614160606B344990F82120012A84
:1019100012D04163606BFEF77DFC38B3206801682C
:1019200021F00101016084F83D60606B1CE02563DB
:10193000282184F83D10DAE7A06B4163A06BFEF725
:1019400069FC98B120684169C943490604D401691A
:10195000606A421C626201702068016821F0010126
:10196000016084F83D60A06B416B88470FE094F8FC
:101970003D1060291DD04169C943490604D401695D
:10198000606A421C626201702046FEF73DFF94F8D7
:101990003D0028280CD1206C400709D51048E06292
:1019A000256384F83D6084F83E502046FFF784F8B4
:1019B00070BD84F83D6025644169C943490604D47B
:1019C0000169606A421C626201702068016821F04E
:1019D000010101602046FEF7B5FDD8E77118000847
:1019E0000000FFFF01684A69D24352050CD46FF42E
:1019F00080624A6104210164002140F8301F2022E6
:101A000042730173012070470020704710B5C26A0D
:101A1000448D2F4B0168032C03D0448D022C15D02C
:101A20000AE0042A03D0082A01D09A4203D10A68A6
:101A300022F480620A6001680A69416A4B1C4362B1
:101A40000A70418D491E4185002010BD042A12D024
:101A5000082A10D09A420ED0022A0A6802D022F434
:101A6000806201E042F480620A6001684A6822F400
:101A700040724A6008E04A6822F440724A60016895
:101A80000A6842F400720A6001680A69416A4B1CE4
:101A900043620A70418D491E418501680A69416AA5
:101AA0004B1C43620A70418D491E4185202180F8FC
:101AB0003D100021016390F83E2080F83E10402A3E
:101AC00002D0FEF7FAFFBFE7FFF796F8BCE7000089
:101AD0000000FFFF10B590F83D1022294CD1418D38
:101AE000032909D901680A69416A4B1C43620A70DB
:101AF000418D491E41853FE0022909D0032907D0C5
:101B0000C16A022901680A6818D022F4806217E0CD
:101B1000C16A022901680A6807D022F480620A605B
:101B200001680A6842F4006201E042F480620A60DF
:101B30000068416821F4806141601DE042F48062E8
:101B40000A6001684A6822F4E0624A6001680A6932
:101B5000416A4B1C43620A70418D491E4185202118
:101B600080F83D100021016390F83E2080F83E107F
:101B7000402A03D0FEF7A1FF002010BDFFF73CF87C
:101B8000FAE70000F8B50446C06A1E460D4617463F
:101B9000042807D0012805D010F5803F02D0206B23
:101BA000122804D12068016841F480710160134655
:101BB00000224FF001112046009600F04AFBA0B928
:101BC0002069B0F5804F12D00620216800EAD510B8
:101BD00040F0F000086133463A460E49204600F0D6
:101BE00069FB38B1206C042811D00320F8BD05F042
:101BF000FE0000E0E8B221680861064933463A4633
:101C0000891F204600F056FB0028EBD1F8BD0120CB
:101C1000F8BD00000800010010B5C26A90F83D1040
:101C2000212921D1418D49B1416A4A1C4262026891
:101C300009781161418D491E418515E0202300215D
:101C4000042A13D0082A11D012F5803F0ED0026862
:101C5000546824F4E06454601122026380F83E105A
:101C600080F83D30FEF72AFF002010BD026854685E
:101C700024F4E06454600268146844F4007414604E
:101C8000016380F83D3090F83E2080F83E10402AF5
:101C9000E8D1FEF7B2FFE7E710B590F83D1090F8F5
:101CA0003E30C26A048D24B1212934D0402B30D07B
:101CB00074E02129FAD120230021042A13D0082A14
:101CC00011D012F5803F0ED00268546824F4E0640D
:101CD00054601122026380F83E1080F83D3000BF4E
:101CE000FEF7ECFE5AE00268546824F4E0645460A5
:101CF0000268146844F400741460016380F83D3095
:101D000090F83E2080F83E10402AE9D1FEF775FF9A
:101D100044E0222942D1418D21B190F83E10402962
:101D200006D032E00068416821F48061416035E00E
:101D3000016D31B1016D012911D0016D022915D05C
:101D40002CE0C16C0129816C02D0C1F3072108E0AD
:101D50000268C9B21161016D891C01651EE0816CC8
:101D6000C9B202681161016D491CF6E790F83D1097
:101D7000222904D090F83D10212906D00EE00068F9
:101D8000016841F48071016008E0416A4A1C4262C6
:101D9000026809781161418D491E4185002010BDFE
:101DA00078B590F83E50C26A046B90F83D6000230D
:101DB0000168222E06D1066D0EB9402D02D0056DA8
:101DC00025B107E04869886900901CE00569B5F510
:101DD000404F1AD0458D85B3458D012D20D0428DC1
:101DE000022A4AD00A6842F480620A6001684A689E
:101DF000120503D54A6842F480524A6001684A6974
:101E0000896900910365002078BD4A698A6900925A
:101E10000A6842F480720A60016D491C0165F2E7AC
:101E200012F5803F0AD0042A21D0082A1FD0122C94
:101E30001DD0C26A022A09D114E00BE00A6822F41C
:101E400080620A6001684A68120503D50A6822F4B4
:101E500080620AE04A698A6900920A6842F4007264
:101E60000A60CFE70A6842F480620A60C6E70A683F
:101E700022F480620A600168ECE7C26A022A0A68FA
:101E80000BD042F400620A6001684A698A690092D4
:101E90000A6822F480620A6006E042F480620A6006
:101EA00001684A698969009101684A681205A9D5E3
:101EB0004A6842F480524A60A4E790F83E104029F4
:101EC00009D00169B1F5804F10D0016D99B1016D54
:101ED000012915D01CE0016D19B9416C01F0FE011A
:101EE00014E0416CC9B241F001010FE090F83D10DF
:101EF0002129F6D1F1E7416CF02201F4407103E0B1
:101F0000416CF12201F4407142EAD1110068016193
:101F1000002070472DE9F84F0446006889460B9D64
:101F200001689846174641F48061016020680168A5
:101F300041F48071016000954FF0011A0022514672
:101F400020460A9B00F085F9F0BB216809F0FE00ED
:101F500008610AF1010B2B46594620460A9A00F007
:101F6000A9F918B1206C042812D03AE02068416920
:101F7000806900902A4620460A9900F010FA50B174
:101F8000206C04282DD12068016841F400710160A3
:101F90000120BDE8F88FFEB2B8F1010F09D0216829
:101FA000380A08612A4620460A9900F0F8F9002804
:101FB000E6D1206806612A4620460A9900F0EFF92A
:101FC0000028DDD1206800E00BE0016841F4807159
:101FD000016000950022514620460A9B00F039F925
:101FE00008B10320D5E7216809F0FF0040F00100A7
:101FF00008612B46594620460A9A00F05BF90028F2
:10200000B0D1C6E72DE9F843044600680D46DDE986
:10201000089701689846164641F4807101604B4666
:1020200000224FF001112046009700F012F9E8B9A4
:10203000216805F0FE0008613B464A4618492046E3
:1020400000F038F928B1206C04280FD10120BDE838
:10205000F88320684169806900903A4649462046E5
:1020600000F09DF920B1206C042813D00320EEE786
:10207000F5B2B8F1010F09D02168300A08613A467B
:102080004946204600F08BF90028ECD12068056114
:102090000020DCE72068016841F400710160D5E7A9
:1020A000020001002DE9F04190F83D40C26A002392
:1020B0001C4F202601686FF48065042A01D0082A8D
:1020C00001D1282C05D0212C17D04D610020BDE86E
:1020D000F081C7624A6822F4E0624A6001684D619B
:1020E00001680A6822F480620A60036380F83D6038
:1020F00080F83E30FEF7E0FCE8E7C7622122026389
:1021000080F83D6080F83E304A6822F4E0624A6020
:1021100001684D6101680A6822F480620A60FEF776
:102120004EFFD3E70000FFFF38B590F83D2001686F
:102130004B6823F4E0634B60036800215C69009402
:102140001C6844F001041C6003681C6824F480646B
:102150001C6003685C6824050BD590F83D40222C78
:102160002BD090F83D402A2C27D0446B246864681B
:102170004485448DE4B15C69E443640707D41C6979
:10218000436A5D1C45621C70438D5B1E438503687A
:102190005C69E443640607D41C69436A5D1C4562BC
:1021A0001C70438D5B1E4385036C43F00403036482
:1021B000036C23B1FFF784FB1FE0846BD6E7202379
:1021C000282A09D02A2A07D0292A05D0046B222CD4
:1021D0000CD0222A0AD010E0094AC262016380F8BA
:1021E0003D3080F83E10FEF767FC06E0016380F8A2
:1021F0003D3080F83E10FEF7E1FE002038BD0000C3
:102200000000FFFF70B516460D4604461AE0204652
:10221000FFF7E8FB08B1012070BD681C12D025B1A2
:10222000FEF78AF9801BA8420CD954F8400F40F001
:10223000200044F8100900202060202161732073E1
:10224000032070BD20684069C0434007DFD40020F0
:1022500070BD2DE9F0471E4690460D460446C1F379
:102260000747DDF8209012E0701C10D02EB1FEF769
:1022700063F9A0EB0900B04209D9002044F8300FFF
:1022800020216173A07320730320BDE8F0872068CC
:10229000012F0AD0806925EA00000004000C06D056
:1022A00000214145E0D00020EFE74069F3E701213C
:1022B000F7E700002DE9F0479A4691460D4604469F
:1022C00000264FF02008C1F307472AE02068406944
:1022D000C043400512D42068016841F400710160D8
:1022E00021686FF48060486104202064266384F8CC
:1022F0003D8084F83C600120BDE8F087B9F1FF3FE4
:102300000FD0B9F1000F05D0FEF716F9A0EB0A01C6
:10231000494506D944F8306F84F80D8026730320B0
:10232000EAE72068012F07D0D0F8180025EA00005E
:102330000004000CE0D0C9E74069F7E72DE9F0415F
:10234000002590460E460446202721E04069C04300
:10235000C0060CD421686FF0100048612564256325
:1023600084F83D7084F83C500120BDE8F0812EB126
:10237000FEF7E2F8A0EB0800B04209D954F8400F8C
:1023800040F0200044F80409677025700320ECE752
:1023900020684169C9434906D8D40020E5E770B5F3
:1023A00016460D4604461AE02046FFF71BFB08B10F
:1023B000012070BD681C12D025B1FEF7BDF8801B4E
:1023C000A8420CD954F8400F40F0200044F81009FE
:1023D00000202060202161732073032070BD2068DD
:1023E0004069C0430006DFD4002070BD1E4810B510
:1023F000816986B041F040018161816901F040014D
:102400000491816941F010018161816901F010013D
:102410000491816941F080018161816901F080014D
:102420000491816941F004018161816901F0040135
:102430000491816941F00801816180690B4C00F0D1
:1024400008000490002210212046FEF76FF81020AB
:102450000090012001900220039069462046FDF77C
:1024600071FF06B010BD000000100240001C0140CA
:102470000E4810B50C4901600D49416000214FF430
:1024800080428160C0E9031241618161C1610162E2
:10249000FEF7C2F9002805D0BDE81040422105A092
:1024A00000F0B5BB10BD000000540040AC0B002094
:1024B000801A06002E2E2F5372632F6932632E630B
:1024C000000000000D4810B50B4901604FF4E131E8
:1024D0004160002181600C22C160C0E90412816169
:1024E000C161FFF74FF9002805D0BDE81040422137
:1024F00003A000F08CBB10BD00380140200C002070
:102500002E2E2F5372632F75736172742E63000029
:10251000FEE770470907090E002806DA00F00F00F1
:1025200000F1E02080F8141D704700F1E02080F8F1
:102530000014704770B50024012104F1B00000F0D0
:1025400079F90121002000F075F90121102000F037
:1025500071F900250021084600F06CF96D1CEDB200
:10256000802DF7D3641CE4B2082CE5D370BD2DE9AF
:10257000F04798461746824600260C46DDF8209024
:1025800011E02146504600F084F8554607E019F85E
:1025900006000021761C00F04DF96D1CEDB2BD4225
:1025A000F5D3641CE4B24445EBD3BDE8F08710B525
:1025B000142000F029FC0121AE2000F03BF901219C
:1025C000002000F037F90121102000F033F901213B
:1025D000402000F02FF90121B02000F02BF901215B
:1025E000812000F027F90121FF2000F023F90121CB
:1025F000A12000F01FF90121A62000F01BF9012104
:10260000A82000F017F901213F2000F013F9012163
:10261000C82000F00FF90121D32000F00BF90121AF
:10262000002000F007F90121D52000F003F9012175
:10263000802000F0FFF80121D82000F0FBF80121F4
:10264000052000F0F7F80121D92000F0F3F801216E
:10265000F12000F0EFF80121DA2000F0EBF8012181
:10266000122000F0E7F80121DB2000F0E3F801215F
:10267000302000F0DFF801218D2000F0DBF801218F
:10268000142000F0D7F80121BDE81040AF2000F081
:10269000D1B810B50A460446012102F1B00000F09D
:1026A000C9F8102040EA1410012100F0C3F804F02A
:1026B0000F00BDE81040012100F0BCB82DE9F04149
:1026C00015460E460746FFF7E4FF0F48002400EBCF
:1026D00085150021285D00F0ADF8641CE4B2102CD3
:1026E000F7D3761CF1B23846FFF7D3FF0024281940
:1026F000002190F8200000F09DF8641CE4B2102C3A
:10270000F5D3BDE8F0810000280800202DE9F04154
:10271000203A00240D468046D6B27F2803D90020F7
:102720008D1C8046EDB2102B294610D0FFF7B1FF6B
:10273000164906EB460001EB40050021285D00F03C
:1027400079F8641CE4B2062CF7D3BDE8F081FFF7FA
:10275000A0FF0F4F04EB06100021385C00F06AF870
:10276000641CE4B2082CF5D36D1CE9B24046FFF7B7
:1027700090FF002404EB061038440021007A00F09A
:1027800059F8641CE4B2082CF4D3DEE7A432000844
:10279000CC3400082DE9F05F0026DDF828901D46B6
:1027A00092468B46804634464FEA590723E0281B61
:1027B000401EC1B20A2000F055FDBAFBF0F00A211C
:1027C000B0FBF1F201FB120026B9691E8C4201DA5E
:1027D00038B101263030C2B207FB0480C0B24B468C
:1027E00004E007FB0480C0B24B4620225946FFF7A5
:1027F0008DFF641CE4B2AC42D9D3BDE8F09F2DE953
:10280000F041984617460E46044600250DE0434623
:1028100031462046FFF77AFF0834E4B2782C02D91B
:102820000024B61CF6B26D1CEDB27A5D002AEED122
:10283000BDE8F0810EB5002201920BA28DF80500D3
:10284000126802928DF8090008480A224FF002032C
:102850000088009209B101AA00E002AA01460448DA
:10286000FEF72EF90EBD000040000000040000201D
:10287000AC0B002070477047401EB0F1807F01D341
:10288000012070474FF0E0214861054AF02082F8AE
:10289000140D0020886107200861002070470000A7
:1028A0000FE000E003480168002902D00168491EDA
:1028B000016070471408002030B58FB00121080472
:1028C000CDE900100024029402250491CDE90750BF
:1028D0004FF4E01009906846FEF728FD00B1FEE7CE
:1028E0000F20CDE90A054FF48060CDE90C400221AC
:1028F0000AA80E94FEF714FC00B1FEE7FEF7BAFC3E
:102900004FF47A71B0FBF1F0FEF79EFE0420FEF763
:102910008FFE00221146501EFEF7D0FB0FB030BDD7
:102920000D48016841F00101016041680B4A114006
:10293000416001680A4A11400160016821F4802168
:102940000160416821F4FE0141604FF41F01816084
:102950000449C00308607047001002400000FFF8FF
:10296000FFFFF6FE08ED00E010B5406A0021C185CA
:10297000C184FEF77DFE10BD0168CA6822F4907222
:10298000CA6001684A6922F001024A61202180F888
:102990003A10704710B590F83A10222901D0022061
:1029A00010BD8168B1F5805F11D00169002901680F
:1029B0001FD0496801F07F03816A4A1C82620B7054
:1029C000C18D491E0904090CC18518D02BE002698C
:1029D000816A002A0268526805D0D2B20A80816AF0
:1029E000491C8162ECE7C2F308020A80816A891CF3
:1029F000F7E74A68816A4B1C83620A70E0E7016866
:102A0000CA6822F02002CA600168CA6822F4807293
:102A1000CA6001684A6922F001024A61202180F8F7
:102A20003A10FEF715FF002010BD00002DE9F0411F
:102A3000044600680169E26821F4405111430161D4
:102A40002169A0680843616908432168CA6841F2A6
:102A50000C639A430243CA6020684169A26921F469
:102A60004071114341614C492068642532268842F7
:102A70003CD1FEF715FC00EBC00101EB00106168D2
:102A80008900B0FBF1F7FEF70BFC00EBC00101EB96
:102A900000106168B0468900B0FBF1F0B0FBF5F0C2
:102AA0006FF01801484307EB800106EB0110B0FB03
:102AB000F5F000F0F006FEF7F3FB00EBC00101EBD0
:102AC000001061688900B0FBF1F0B0FBF5F006EB97
:102AD0000016FEF7E5FB00EBC00101EB001061689A
:102AE0008900B0FBF1F7FEF7DBFB3BE0FEF7C8FB2C
:102AF00000EBC00101EB001061688900B0FBF1F749
:102B0000FEF7BEFB00EBC00101EB00106168B046B0
:102B10008900B0FBF1F0B0FBF5F06FF0180148430D
:102B200007EB800106EB0110B0FBF5F000F0F006BA
:102B3000FEF7A6FB00EBC00101EB00106168890005
:102B4000B0FBF1F0B0FBF5F006EB0016FEF798FBDA
:102B500000EBC00101EB001061688900B0FBF1F7E8
:102B6000FEF78EFB00EBC00101EB001061688900ED
:102B7000B0FBF1F0B0FBF5F06FF01801484307EB44
:102B8000800108EB0110B0FBF5F0216800F00F00A8
:102B900030448860BDE8F0810038014090F8391079
:102BA000212901D0022070478168B1F5805F016A58
:102BB0000BD04A1C0262026809785160C18C491E20
:102BC0000904090CC1840ED017E009880268C1F31A
:102BD0000801516001690029016A02D0491C0162A3
:102BE000ECE7891CFBE70168CA6822F08002CA6032
:102BF0000068C16841F04001C160002070470000DA
:102C00000148FEF737BD0000200C0020FEE7FEE77C
:102C10000FB4054B10B503A9044A029800F018F848
:102C200010BC5DF814FB0000612E0008A80B00200A
:102C300002E008C8121F08C1002AFAD17047704785
:102C4000002001E001C1121F002AFBD170470000E3
:102C50002DE9FF4F8BB09A460F460546002606E049
:102C600025280BD052460D9990476D1C761C28786C
:102C70000028F5D10FB03046BDE8F08F0024A04603
:102C80000122604900E0044315F8013F203B02FAAD
:102C900003F00842F7D128782E2817D115F8010F34
:102CA00044F004042A280ED06FF02F022878A0F1F7
:102CB000300109290AD808EB880102EB410100EB39
:102CC00001086D1CF2E757F8048B6D1C2878692801
:102CD0003ED006DC0028CDD063280BD0642804D178
:102CE00036E0732810D075284BD052460D99904786
:102CF000761C85E017F8040B8DF8000000208DF895
:102D00000100E946012003E057F8049B4FF0FF3033
:102D100061074FF0000401D40AE0641C44450DDA59
:102D20008442FADB19F804100029F6D106E0641C8D
:102D30008442FCDB19F804100029F8D1264404E091
:102D400019F8010B52460D999047641EF8D257E0CE
:102D500001CF4FF00A0B002802DA40422D2102E099
:102D6000210504D52B218DF82410012103E0E10772
:102D700005D02021F7E70DF1200908910CE0002192
:102D8000F9E701CF4FF00A0BF9E75946FDF7ECF9E7
:102D900001F1300209F8012D0028F6D1ADEB090050
:102DA00000F1200B600701D44FF00108D84502DD87
:102DB000A8EB0B0000E000208046002406E009A8F4
:102DC0005246005D0D999047641C761C0898844219
:102DD000F5DB04E0302052460D999047761CB8F19F
:102DE0000001A8F10108F5DC05E019F8010B5246D5
:102DF0000D999047761CBBF10001ABF1010BF4DC9F
:102E00006D1C34E7092801004FF4FA5148434FF094
:102E1000E02148610020886101220A610A69D30724
:102E200001D0D203FAD508618861704701B5FEF779
:102E300021FA4FF47A71B0FBF1F0FFF71DFD00B1FC
:102E4000FEE706480099016001680029FCD14FF0B7
:102E5000E02100200861886108BD000014080020FE
:102E6000034A914201D100F005BA4FF0FF3070479C
:102E7000A80B00200EB54FF020094FF47A754E468E
:102E80000027FEF79DF8FFF717FDFFF7AFFAFFF7F2
:102E900019FBFFF7EDFAFFF78AFBFFF74BFB8FA05B
:102EA000FFF7B6FE9D4C2B460322A1889C48FDF7F8
:102EB00053FD10B99BA0FFF7ABFE0A20FFF7A4FF5C
:102EC0002B46032221889648FDF746FD10B99AA0AB
:102ED000FFF79EFE0A20FFF797FF2B460322E188AB
:102EE0008F48FDF739FD10B998A0FFF791FE0A2031
:102EF000FFF78AFF2B46032261898948FDF72CFDE5
:102F000010B998A0FFF784FE0A20FFF77DFF9CA070
:102F1000FFF77EFE002211461046FFF7CFFB01228D
:102F200000211220FFF7CAFB022200212420FFF714
:102F3000C5FB032200213620FFF7C0FB042200213D
:102F40004820FFF7BBFB052200215A20FFF7B6FB04
:102F5000062200216C20FFF7B1FB10238CA2032175
:102F60000620FFF74CFC10238DA206210020FFF75E
:102F700046FC10238CA206213F20FFF740FC1023C3
:102F8000324606213020FFF7C1FB1020009021229D
:102F9000032306216720FFF7FDFB40F6B8352846DE
:102FA000FFF732FF5D480021133000900823802294
:102FB0000846FFF7DCFA2846FFF738FF7C48002177
:102FC0000090082380220846FFF7D1FA2846FFF731
:102FD0002DFFFFF7AFFA4FF0080876A0CDE9000803
:102FE0006E1002960123002221884D48FDF716FF3E
:102FF0000520FFF709FF72A0CDE900080296012322
:10300000082221884648FDF709FF0520FFF7FCFE4E
:1030100049466EA0FFF7FCFD774D02E00520FFF763
:10302000F3FECDE9005802960123002261883C4856
:10303000FDF7E4FD0028F1D170A0FFF7E9FD6E492E
:1030400073A0FFF7E5FD3648FDF7E2FB014672A0ED
:10305000FFF7DEFD3248FDF7D8FB014674A0FFF70D
:10306000D7FDDFF8B8904FF0070809F10C0902E02E
:103070000520FFF7C9FECDF80090CDE901860123B8
:103080000022E1882648FDF7C9FE0028F0D1A146BC
:1030900034460095CDE9018401230022B9F80810D7
:1030A0001F48FDF7ABFD18B1C820FFF7ADFEF0E7F4
:1030B0002878B842EDD0074600F00F0162A0FFF774
:1030C000A7FDA87900F00F01000900EB800001EBDB
:1030D000400161A0FFF79CFDDBE70000200D0A2006
:1030E000200D0A202A2A2A2A2A2A2A2A2A2A2A2A91
:1030F0002A2A2A2A2A2A2A2020424547494E2021C4
:10310000202A2A2A2A2A2A2A2A2A2A2A2A2A2A2A29
:103110002A2A2A2A0D0A20200D0A00000000002079
:10312000AC0B00204F4C45442069732072656164EC
:10313000792021200D0A0000323463303220697377
:103140002072656164792021200D0A0044533332D6
:1031500033312069732072656164792021200D0A62
:10316000000000004453333233315F323463303275
:103170002069732072656164792021200D0A0000A6
:10318000200D0A20200D0A2020200D0A000000003A
:10319000302E393627204F4C454420544553540097
:1031A00041534349493A0000434F44453A00000027
:1031B000130400206162636465666768690000004B
:1031C0003132333435363738000000007772697495
:1031D00074656E20256420627974657320696E744D
:1031E0006F2032344330322073756363657373200C
:1031F00021200D0A00000000000C002072656164AF
:1032000020737563636573732021200D0A0000002D
:10321000202573200D0A00002074686520737461F6
:103220007465206973202020256420200D0A000089
:1032300020746865206D6F646520697320202025E7
:103240006420200D0A000000202564207365636F50
:103250006E64200D0A0000002025642079656172EB
:10326000200D0A000246012000E05043491EC9B269
:10327000FBD2704704490A685206FCD5024AC1B223
:10328000121D11607047000000380140000000006E
:103290000000000001020304060708090000000006
:1032A000010203040000000000000000002F0000E5
:1032B00000000700070000147F147F1400242A7FF9
:1032C0002A12006264081323003649552250000078
:1032D0000503000000001C224100000041221C00E8
:1032E0000014083E08140008083E0808000000A06A
:1032F0006000000808080808000060600000002066
:1033000010080402003E5149453E0000427F400043
:10331000004261514946002141454B3100181412C9
:103320007F10002745454539003C4A494930000196
:103330007109050300364949493600064949291EE5
:103340000000363600000000563600000008142247
:103350004100001414141414000041221408000247
:103360000151090600324959513E007C1211127C6C
:10337000007F49494936003E41414122007F414199
:10338000221C007F49494941007F09090901003E8B
:103390004149497A007F0808087F0000417F4100C9
:1033A000002040413F01007F08142241007F40403F
:1033B0004040007F020C027F007F0408107F003E27
:1033C0004141413E007F09090906003E4151215E0D
:1033D000007F091929460046494949310001017F0A
:1033E0000101003F4040403F001F2040201F003FA0
:1033F0004038403F00631408146300070870080752
:1034000000615149454300007F41410000552A5564
:103410002A55000041417F000004020102040040DF
:103420004040404000000102040000205454547801
:10343000007F484444380038444444200038444421
:10344000487F00385454541800087E0901020018BF
:10345000A4A4A47C007F080404780000447D4000FC
:10346000004080847D00007F102844000000417FE0
:103470004000007C04180478007C080404780038BC
:103480004444443800FC242424180018242418FC44
:10349000007C0804040800485454542000043F44AD
:1034A0004020003C4040207C001C2040201C003C70
:1034B0004030403C004428102844001CA0A0A07CC0
:1034C000004464544C4414141414141400000000F8
:1034D000000000000000000000000000000000F8F4
:1034E00000000000000000333000000000100C0657
:1034F000100C0600000000000000000040C07840F2
:10350000C0784000043F04043F040400007088FCBD
:1035100008300000001820FF211E0000F008F00015
:10352000E018000000211C031E211E0000F0088886
:10353000700000001E2123241927211010160E00F0
:10354000000000000000000000000000000000E09B
:1035500018040200000000071820400000020418B0
:10356000E00000000040201807000000404080F00C
:10357000804040000202010F01020200000000F042
:10358000000000000101011F010101000000000016
:103590000000000080B0700000000000000000008B
:1035A0000000000000010101010101010000000014
:1035B00000000000003030000000000000000000AB
:1035C00080601804006018060100000000E0100888
:1035D0000810E000000F102020100F00001010F85D
:1035E000000000000020203F20200000007008089C
:1035F000088870000030282422213000003008881C
:10360000884830000018202020110E000000C02043
:1036100010F8000000070424243F240000F8088864
:10362000880808000019212020110E0000E01088F1
:1036300088180000000F112020110E000038080823
:10364000C83808000000003F000000000070880833
:1036500008887000001C222121221C0000E01008B4
:103660000810E0000000312222110F00000000C00D
:10367000C0000000000000303000000000000080AA
:10368000000000000000806000000000000080409A
:1036900020100800000102040810200040404040B3
:1036A0004040400004040404040404000008102006
:1036B000408000000020100804020100007048084B
:1036C0000808F0000000003036010000C030C828B3
:1036D000E810E0000718272423140B000000C0386E
:1036E000E0000000203C23020227382008F88888E8
:1036F00088700000203F202020110E00C0300808F4
:1037000008083800071820202010080008F80808CA
:103710000810E000203F202020100F0008F88888C3
:10372000E8081000203F20202320180008F888888F
:10373000E8081000203F200003000000C030080807
:103740000838000007182020221E020008F8080090
:103750000008F808203F210101213F20000808F857
:10376000080800000020203F20200000000008087A
:10377000F8080800C08080807F00000008F888C03A
:1037800028180800203F20012638200008F80800EB
:1037900000000000203F20202020300008F8F80022
:1037A000F8F80800203F003F003F200008F830C034
:1037B0000008F808203F200007183F00E010080824
:1037C0000810E0000F10202020100F0008F8080853
:1037D0000808F000203F210101010000E010080866
:1037E0000810E0000F18242438504F0008F888888B
:1037F00088887000203F2000030C3020007088086B
:10380000080838000038202121221C00180808F878
:10381000080818000000203F2000000008F80800F9
:103820000008F808001F202020201F0008788800CA
:1038300000C83808000007380E010000F80800F83A
:103840000008F800033C0700073C030008186880E4
:103850008068180820302C03032C30200838C8005A
:10386000C83808000000203F2000000010080808A9
:10387000C83808002038262120201800000000FE4B
:10388000020202000000007F40404000000C30C0F7
:1038900000000000000000010638C0000002020223
:1038A000FE000000004040407F00000000000402D5
:1038B0000202040000000000000000000000000000
:1038C00000000000808080808080808000020204F0
:1038D00000000000000000000000000000008080E8
:1038E000808000000019242222223F2008F8008056
:1038F00080000000003F112020110E000000008019
:1039000080800000000E11202020110000000080A7
:103910008088F800000E112020103F2000008080D9
:1039200080800000001F222222221300008080F0ED
:10393000888888180020203F202000000000808018
:1039400080808000006B94949493600008F800805D
:1039500080800000203F210000203F2000809898B8
:10396000000000000020203F202000000000008018
:103970009898000000C08080807F000008F8000058
:1039800080808000203F24022D302000000808F8AD
:10399000000000000020203F202000008080808068
:1039A00080808000203F20003F20003F80800080FA
:1039B00080800000203F210000203F200000808008
:1039C00080800000001F202020201F0080800080B9
:1039D0008000000080FFA12020110E000000008068
:1039E00080808000000E112020A0FF808080800059
:1039F0008080800020203F21200001000000808086
:103A0000808080000033242424241900008080E07A
:103A1000808000000000001F202000008080000047
:103A200000808000001F202020103F208080800028
:103A30000080808000010E30080601008080008038
:103A4000008080800F300C030C300F00008080005D
:103A5000808080000020312E0E3120008080800088
:103A60000080808080818E70180601000080808038
:103A7000808080000021302C2221300000000000D6
:103A8000807C020200000000003F40400000000077
:103A9000FF00000000000000FF0000000002027CA8
:103AA000800000000040403F0000000000060101CF
:103AB000020204040000000000000000DC3A0008DC
:103AC00000000020AC0B0000B8010008583E0008C0
:103AD000AC0B0020B4040000402C000812A012A17E
:103AE000127812D012D132AE160C01070518160644
:103AF0000AFE0AC612E012F062F84EFE7DBBC7EF66
:103B000001053EC7BB7DFE300D080CFEFE0C0820F3
:103B100060FEFE60208F7848FE82BABA0309135E09
:103B2000AA0101017E6CFEFF0301CBFFFF0F39BB31
:103B3000ECC0C0C0271918F92701392975990B6CF9
:103B4000FFFF0C01491A0C22E1E1E12701396C0F5A
:103B50001F1801FB1F0F0F092E270136168C42225A
:103B6000120C26FC020202FC3304FE16205844FE0E
:103B7000402A10015912491E4912A92A0123300A6C
:103B800024A42E24E4242EA424C00AF84A4C48F885
:103B9000484C4AF82A01013907490D5915991F99CE
:103BA00018091412712BC020A1AB20C00A11300AD1
:103BB000120A07027F02070A121E0B0A0A0A7F0472
:103BC00002560B980A1F2040404050205F800ADABE
:103BD000FF010110091E2001583620E17F40C00579
:103BE0007398E06080100CD808FFFCEB7F686C6F66
:103BF00079C003120101095D944EFAFF83010201AD
:103C0000E2FF1A40012808C06070EF7060C00B022C
:103C1000124039221F406060FC60600809132301D4
:103C200011281802030705070F0E0B1B1E3F2E3E1F
:103C30007E7CEEEFE7CFCE8E8E0E013C0F0E0C0891
:103C400099016A0F03091701291C69046901000F12
:103C50001FCECEEE6EFE7E7E3E3E1E1E0E06060081
:103C60000D3E01010303070F163CD8F0E080000E63
:103C700017C0E0F0F8EC7E1E1B0F0F070301522067
:103C80003A8001C1190E380A0307FF9FFCF040403B
:103C9000401919111902091029A9331E80C040C00A
:103CA000C05210114080C0707C7F7F474643414026
:103CB0008080404019452948E93A3A02014B030106
:103CC0009D4B010110190129121A0307715A012293
:103CD00081190F29132B0202426F03010206040609
:103CE000461918E92EB939295ED12CA24A042F921F
:103CF000101BF010012AFF050215F01B0F04012A0A
:103D0000FF0502130F19E71E5F55555575041A5F1D
:103D10000C091121080C11200F0949897909090999
:103D20000F201F112FFE02424ACA4A030413420207
:103D3000FE000E14FF40504C4340404F50505C403A
:103D4000FF1BF888012AFF050215F81B1F08012A2E
:103D50007F200B109F80E23B808201000916E2A2C7
:103D6000928A86828080041840807F172424A4FED3
:103D7000A3221B22CCAA011415080601FF2B010463
:103D8000010511FF0202025808101010FF109008E0
:103D9000C3021108080F100444827F018080404351
:103DA0002C10284681A018094040484848C8784F40
:103DB00006051548484040000915031212222252F8
:103DC0008A063C106080BA19040B11C030FB1E40FB
:103DD0004043407F061C7F424106094FC0294108ED
:103DE0000B1110D030FF30D0121C10101F3D0804F2
:103DF00002019E0D1101020408211116FE22222249
:103E0000FE0712FE828292A29E100880601F02426C
:103E1000827F0F11FF402F102C438011000B149054
:103E2000884C57A42454548C8418080101804222E1
:103E30001A07441D423E01018AF9E1000D14E424F1
:103E40002CB4252624B42C24E404180AFF02011EF5
:083E50001212121E4186011638
:0400000508000131BD
:00000001FF
